{
  "_format": "hh-sol-artifact-1",
  "contractName": "Subscriptions",
  "sourceName": "contracts/Subscriptions.sol",
  "abi": [
    {
      "inputs": [
        {
          "internalType": "contract IStations",
          "name": "stationsContract_",
          "type": "address"
        },
        {
          "internalType": "contract IPolicy",
          "name": "policy_",
          "type": "address"
        }
      ],
      "stateMutability": "nonpayable",
      "type": "constructor"
    },
    {
      "inputs": [],
      "name": "InsufficientFunds",
      "type": "error"
    },
    {
      "anonymous": false,
      "inputs": [
        {
          "indexed": true,
          "internalType": "address",
          "name": "owner",
          "type": "address"
        },
        {
          "indexed": true,
          "internalType": "address",
          "name": "approved",
          "type": "address"
        },
        {
          "indexed": true,
          "internalType": "uint256",
          "name": "tokenId",
          "type": "uint256"
        }
      ],
      "name": "Approval",
      "type": "event"
    },
    {
      "anonymous": false,
      "inputs": [
        {
          "indexed": true,
          "internalType": "address",
          "name": "owner",
          "type": "address"
        },
        {
          "indexed": true,
          "internalType": "address",
          "name": "operator",
          "type": "address"
        },
        {
          "indexed": false,
          "internalType": "bool",
          "name": "approved",
          "type": "bool"
        }
      ],
      "name": "ApprovalForAll",
      "type": "event"
    },
    {
      "anonymous": false,
      "inputs": [
        {
          "indexed": false,
          "internalType": "uint256",
          "name": "stationId",
          "type": "uint256"
        },
        {
          "indexed": false,
          "internalType": "uint256",
          "name": "subscriptionId",
          "type": "uint256"
        }
      ],
      "name": "SubscriptionCreated",
      "type": "event"
    },
    {
      "anonymous": false,
      "inputs": [
        {
          "indexed": true,
          "internalType": "address",
          "name": "from",
          "type": "address"
        },
        {
          "indexed": true,
          "internalType": "address",
          "name": "to",
          "type": "address"
        },
        {
          "indexed": true,
          "internalType": "uint256",
          "name": "tokenId",
          "type": "uint256"
        }
      ],
      "name": "Transfer",
      "type": "event"
    },
    {
      "inputs": [
        {
          "internalType": "address",
          "name": "to",
          "type": "address"
        },
        {
          "internalType": "uint256",
          "name": "tokenId",
          "type": "uint256"
        }
      ],
      "name": "approve",
      "outputs": [],
      "stateMutability": "nonpayable",
      "type": "function"
    },
    {
      "inputs": [
        {
          "internalType": "address",
          "name": "owner",
          "type": "address"
        }
      ],
      "name": "balanceOf",
      "outputs": [
        {
          "internalType": "uint256",
          "name": "",
          "type": "uint256"
        }
      ],
      "stateMutability": "view",
      "type": "function"
    },
    {
      "inputs": [
        {
          "internalType": "uint256",
          "name": "stationId",
          "type": "uint256"
        },
        {
          "internalType": "address",
          "name": "to",
          "type": "address"
        },
        {
          "internalType": "bytes",
          "name": "data",
          "type": "bytes"
        }
      ],
      "name": "createSubscription",
      "outputs": [],
      "stateMutability": "payable",
      "type": "function"
    },
    {
      "inputs": [
        {
          "internalType": "uint256",
          "name": "tokenId",
          "type": "uint256"
        }
      ],
      "name": "getApproved",
      "outputs": [
        {
          "internalType": "address",
          "name": "",
          "type": "address"
        }
      ],
      "stateMutability": "view",
      "type": "function"
    },
    {
      "inputs": [
        {
          "internalType": "address",
          "name": "owner",
          "type": "address"
        },
        {
          "internalType": "address",
          "name": "operator",
          "type": "address"
        }
      ],
      "name": "isApprovedForAll",
      "outputs": [
        {
          "internalType": "bool",
          "name": "",
          "type": "bool"
        }
      ],
      "stateMutability": "view",
      "type": "function"
    },
    {
      "inputs": [],
      "name": "name",
      "outputs": [
        {
          "internalType": "string",
          "name": "",
          "type": "string"
        }
      ],
      "stateMutability": "view",
      "type": "function"
    },
    {
      "inputs": [
        {
          "internalType": "uint256",
          "name": "tokenId",
          "type": "uint256"
        }
      ],
      "name": "ownerOf",
      "outputs": [
        {
          "internalType": "address",
          "name": "",
          "type": "address"
        }
      ],
      "stateMutability": "view",
      "type": "function"
    },
    {
      "inputs": [],
      "name": "policyContract",
      "outputs": [
        {
          "internalType": "contract IPolicy",
          "name": "",
          "type": "address"
        }
      ],
      "stateMutability": "view",
      "type": "function"
    },
    {
      "inputs": [
        {
          "internalType": "address",
          "name": "from",
          "type": "address"
        },
        {
          "internalType": "address",
          "name": "to",
          "type": "address"
        },
        {
          "internalType": "uint256",
          "name": "tokenId",
          "type": "uint256"
        }
      ],
      "name": "safeTransferFrom",
      "outputs": [],
      "stateMutability": "nonpayable",
      "type": "function"
    },
    {
      "inputs": [
        {
          "internalType": "address",
          "name": "from",
          "type": "address"
        },
        {
          "internalType": "address",
          "name": "to",
          "type": "address"
        },
        {
          "internalType": "uint256",
          "name": "tokenId",
          "type": "uint256"
        },
        {
          "internalType": "bytes",
          "name": "data",
          "type": "bytes"
        }
      ],
      "name": "safeTransferFrom",
      "outputs": [],
      "stateMutability": "nonpayable",
      "type": "function"
    },
    {
      "inputs": [
        {
          "internalType": "address",
          "name": "operator",
          "type": "address"
        },
        {
          "internalType": "bool",
          "name": "approved",
          "type": "bool"
        }
      ],
      "name": "setApprovalForAll",
      "outputs": [],
      "stateMutability": "nonpayable",
      "type": "function"
    },
    {
      "inputs": [
        {
          "internalType": "uint256",
          "name": "subscriptionId",
          "type": "uint256"
        }
      ],
      "name": "station",
      "outputs": [
        {
          "internalType": "uint256",
          "name": "stationId",
          "type": "uint256"
        }
      ],
      "stateMutability": "view",
      "type": "function"
    },
    {
      "inputs": [],
      "name": "stationsContract",
      "outputs": [
        {
          "internalType": "contract IStations",
          "name": "",
          "type": "address"
        }
      ],
      "stateMutability": "view",
      "type": "function"
    },
    {
      "inputs": [
        {
          "internalType": "uint256",
          "name": "stationId",
          "type": "uint256"
        }
      ],
      "name": "subscribers",
      "outputs": [
        {
          "internalType": "uint256",
          "name": "number",
          "type": "uint256"
        }
      ],
      "stateMutability": "view",
      "type": "function"
    },
    {
      "inputs": [
        {
          "internalType": "bytes4",
          "name": "interfaceId",
          "type": "bytes4"
        }
      ],
      "name": "supportsInterface",
      "outputs": [
        {
          "internalType": "bool",
          "name": "",
          "type": "bool"
        }
      ],
      "stateMutability": "view",
      "type": "function"
    },
    {
      "inputs": [],
      "name": "symbol",
      "outputs": [
        {
          "internalType": "string",
          "name": "",
          "type": "string"
        }
      ],
      "stateMutability": "view",
      "type": "function"
    },
    {
      "inputs": [
        {
          "internalType": "uint256",
          "name": "tokenId",
          "type": "uint256"
        }
      ],
      "name": "tokenURI",
      "outputs": [
        {
          "internalType": "string",
          "name": "",
          "type": "string"
        }
      ],
      "stateMutability": "view",
      "type": "function"
    },
    {
      "inputs": [
        {
          "internalType": "address",
          "name": "from",
          "type": "address"
        },
        {
          "internalType": "address",
          "name": "to",
          "type": "address"
        },
        {
          "internalType": "uint256",
          "name": "tokenId",
          "type": "uint256"
        }
      ],
      "name": "transferFrom",
      "outputs": [],
      "stateMutability": "nonpayable",
      "type": "function"
    }
  ],
  "bytecode": "0x60c06040523480156200001157600080fd5b50604051620033f2380380620033f28339818101604052810190620000379190620001fc565b6040518060400160405280601381526020017f4d6a6f6c6e6972537562736372697074696f6e000000000000000000000000008152506040518060400160405280600381526020017f4d534200000000000000000000000000000000000000000000000000000000008152508160009081620000b49190620004bd565b508060019081620000c69190620004bd565b5050508173ffffffffffffffffffffffffffffffffffffffff1660808173ffffffffffffffffffffffffffffffffffffffff16815250508073ffffffffffffffffffffffffffffffffffffffff1660a08173ffffffffffffffffffffffffffffffffffffffff16815250505050620005a4565b600080fd5b600073ffffffffffffffffffffffffffffffffffffffff82169050919050565b60006200016b826200013e565b9050919050565b60006200017f826200015e565b9050919050565b620001918162000172565b81146200019d57600080fd5b50565b600081519050620001b18162000186565b92915050565b6000620001c4826200015e565b9050919050565b620001d681620001b7565b8114620001e257600080fd5b50565b600081519050620001f681620001cb565b92915050565b6000806040838503121562000216576200021562000139565b5b60006200022685828601620001a0565b92505060206200023985828601620001e5565b9150509250929050565b600081519050919050565b7f4e487b7100000000000000000000000000000000000000000000000000000000600052604160045260246000fd5b7f4e487b7100000000000000000000000000000000000000000000000000000000600052602260045260246000fd5b60006002820490506001821680620002c557607f821691505b602082108103620002db57620002da6200027d565b5b50919050565b60008190508160005260206000209050919050565b60006020601f8301049050919050565b600082821b905092915050565b600060088302620003457fffffffffffffffffffffffffffffffffffffffffffffffffffffffffffffffff8262000306565b62000351868362000306565b95508019841693508086168417925050509392505050565b6000819050919050565b6000819050919050565b60006200039e62000398620003928462000369565b62000373565b62000369565b9050919050565b6000819050919050565b620003ba836200037d565b620003d2620003c982620003a5565b84845462000313565b825550505050565b600090565b620003e9620003da565b620003f6818484620003af565b505050565b5b818110156200041e5762000412600082620003df565b600181019050620003fc565b5050565b601f8211156200046d576200043781620002e1565b6200044284620002f6565b8101602085101562000452578190505b6200046a6200046185620002f6565b830182620003fb565b50505b505050565b600082821c905092915050565b6000620004926000198460080262000472565b1980831691505092915050565b6000620004ad83836200047f565b9150826002028217905092915050565b620004c88262000243565b67ffffffffffffffff811115620004e457620004e36200024e565b5b620004f08254620002ac565b620004fd82828562000422565b600060209050601f83116001811462000535576000841562000520578287015190505b6200052c85826200049f565b8655506200059c565b601f1984166200054586620002e1565b60005b828110156200056f5784890151825560018201915060208501945060208101905062000548565b868310156200058f57848901516200058b601f8916826200047f565b8355505b6001600288020188555050505b505050505050565b60805160a051612e1a620005d8600039600081816107780152610ce301526000818161093e0152610c040152612e1a6000f3fe6080604052600436106101095760003560e01c806369ce866811610095578063a22cb46511610064578063a22cb46514610382578063b88d4fde146103ab578063b9877ef8146103d4578063c87b56dd14610411578063e985e9c51461044e57610109565b806369ce8668146102c457806370a08231146102ef5780637ff063571461032c57806395d89b411461035757610109565b80630c32fc94116100dc5780630c32fc94146101dc57806323b872dd146101f857806342842e0e1461022157806359221a681461024a5780636352211e1461028757610109565b806301ffc9a71461010e57806306fdde031461014b578063081812fc14610176578063095ea7b3146101b3575b600080fd5b34801561011a57600080fd5b5061013560048036038101906101309190611d41565b61048b565b6040516101429190611d89565b60405180910390f35b34801561015757600080fd5b5061016061056d565b60405161016d9190611e34565b60405180910390f35b34801561018257600080fd5b5061019d60048036038101906101989190611e8c565b6105ff565b6040516101aa9190611efa565b60405180910390f35b3480156101bf57600080fd5b506101da60048036038101906101d59190611f41565b610645565b005b6101f660048036038101906101f19190611fe6565b61075c565b005b34801561020457600080fd5b5061021f600480360381019061021a919061205a565b610ae2565b005b34801561022d57600080fd5b506102486004803603810190610243919061205a565b610b42565b005b34801561025657600080fd5b50610271600480360381019061026c9190611e8c565b610b62565b60405161027e91906120bc565b60405180910390f35b34801561029357600080fd5b506102ae60048036038101906102a99190611e8c565b610b7a565b6040516102bb9190611efa565b60405180910390f35b3480156102d057600080fd5b506102d9610c00565b6040516102e69190612136565b60405180910390f35b3480156102fb57600080fd5b5061031660048036038101906103119190612151565b610c28565b60405161032391906120bc565b60405180910390f35b34801561033857600080fd5b50610341610cdf565b60405161034e919061219f565b60405180910390f35b34801561036357600080fd5b5061036c610d07565b6040516103799190611e34565b60405180910390f35b34801561038e57600080fd5b506103a960048036038101906103a491906121e6565b610d99565b005b3480156103b757600080fd5b506103d260048036038101906103cd9190612356565b610daf565b005b3480156103e057600080fd5b506103fb60048036038101906103f69190611e8c565b610e11565b60405161040891906120bc565b60405180910390f35b34801561041d57600080fd5b5061043860048036038101906104339190611e8c565b610e29565b6040516104459190611e34565b60405180910390f35b34801561045a57600080fd5b50610475600480360381019061047091906123d9565b610e91565b6040516104829190611d89565b60405180910390f35b60007f80ac58cd000000000000000000000000000000000000000000000000000000007bffffffffffffffffffffffffffffffffffffffffffffffffffffffff1916827bffffffffffffffffffffffffffffffffffffffffffffffffffffffff1916148061055657507f5b5e139f000000000000000000000000000000000000000000000000000000007bffffffffffffffffffffffffffffffffffffffffffffffffffffffff1916827bffffffffffffffffffffffffffffffffffffffffffffffffffffffff1916145b80610566575061056582610f25565b5b9050919050565b60606000805461057c90612448565b80601f01602080910402602001604051908101604052809291908181526020018280546105a890612448565b80156105f55780601f106105ca576101008083540402835291602001916105f5565b820191906000526020600020905b8154815290600101906020018083116105d857829003601f168201915b5050505050905090565b600061060a82610f8f565b6004600083815260200190815260200160002060009054906101000a900473ffffffffffffffffffffffffffffffffffffffff169050919050565b600061065082610b7a565b90508073ffffffffffffffffffffffffffffffffffffffff168373ffffffffffffffffffffffffffffffffffffffff16036106c0576040517f08c379a00000000000000000000000000000000000000000000000000000000081526004016106b7906124eb565b60405180910390fd5b8073ffffffffffffffffffffffffffffffffffffffff166106df610fda565b73ffffffffffffffffffffffffffffffffffffffff16148061070e575061070d81610708610fda565b610e91565b5b61074d576040517f08c379a00000000000000000000000000000000000000000000000000000000081526004016107449061257d565b60405180910390fd5b6107578383610fe2565b505050565b60006007600086815260200190815260200160002054905060007f000000000000000000000000000000000000000000000000000000000000000073ffffffffffffffffffffffffffffffffffffffff1663e8cf5286836040518263ffffffff1660e01b81526004016107cf91906120bc565b602060405180830381865afa1580156107ec573d6000803e3d6000fd5b505050506040513d601f19601f8201168201806040525081019061081091906125b2565b90503481111561084c576040517f356680b700000000000000000000000000000000000000000000000000000000815260040160405180910390fd5b6000604051806040016040528088815260200184815250604051602001610873919061268a565b6040516020818303038152906040528051906020012060001c90506108dd868287878080601f016020809104026020016040519081016040528093929190818152602001838380828437600081840152601f19601f8201169050808301925050505050505061109b565b6001836108ea91906126d4565b60076000898152602001908152602001600020819055507fdb764186121b83c285b40ac3bdc06b8e79d76c10db33aca8bb3546b2d5749e318782604051610932929190612708565b60405180910390a160007f000000000000000000000000000000000000000000000000000000000000000073ffffffffffffffffffffffffffffffffffffffff16636352211e896040518263ffffffff1660e01b815260040161099591906120bc565b602060405180830381865afa1580156109b2573d6000803e3d6000fd5b505050506040513d601f19601f820116820180604052508101906109d69190612746565b905060008173ffffffffffffffffffffffffffffffffffffffff16846040516109fe906127a4565b60006040518083038185875af1925050503d8060008114610a3b576040519150601f19603f3d011682016040523d82523d6000602084013e610a40565b606091505b50508091505080610a5457610a536127b9565b5b34841015610ac9573373ffffffffffffffffffffffffffffffffffffffff1684604051610a80906127a4565b60006040518083038185875af1925050503d8060008114610abd576040519150601f19603f3d011682016040523d82523d6000602084013e610ac2565b606091505b5050809150505b80610ad757610ad66127b9565b5b505050505050505050565b610af3610aed610fda565b826110f6565b610b32576040517f08c379a0000000000000000000000000000000000000000000000000000000008152600401610b299061285a565b60405180910390fd5b610b3d83838361118b565b505050565b610b5d83838360405180602001604052806000815250610daf565b505050565b60076020528060005260406000206000915090505481565b600080610b8683611484565b9050600073ffffffffffffffffffffffffffffffffffffffff168173ffffffffffffffffffffffffffffffffffffffff1603610bf7576040517f08c379a0000000000000000000000000000000000000000000000000000000008152600401610bee906128c6565b60405180910390fd5b80915050919050565b60007f0000000000000000000000000000000000000000000000000000000000000000905090565b60008073ffffffffffffffffffffffffffffffffffffffff168273ffffffffffffffffffffffffffffffffffffffff1603610c98576040517f08c379a0000000000000000000000000000000000000000000000000000000008152600401610c8f90612958565b60405180910390fd5b600360008373ffffffffffffffffffffffffffffffffffffffff1673ffffffffffffffffffffffffffffffffffffffff168152602001908152602001600020549050919050565b60007f0000000000000000000000000000000000000000000000000000000000000000905090565b606060018054610d1690612448565b80601f0160208091040260200160405190810160405280929190818152602001828054610d4290612448565b8015610d8f5780601f10610d6457610100808354040283529160200191610d8f565b820191906000526020600020905b815481529060010190602001808311610d7257829003601f168201915b5050505050905090565b610dab610da4610fda565b83836114c1565b5050565b610dc0610dba610fda565b836110f6565b610dff576040517f08c379a0000000000000000000000000000000000000000000000000000000008152600401610df69061285a565b60405180910390fd5b610e0b8484848461162d565b50505050565b60066020528060005260406000206000915090505481565b6060610e3482610f8f565b6000610e3e611689565b90506000815111610e5e5760405180602001604052806000815250610e89565b80610e68846116a0565b604051602001610e799291906129b4565b6040516020818303038152906040525b915050919050565b6000600560008473ffffffffffffffffffffffffffffffffffffffff1673ffffffffffffffffffffffffffffffffffffffff16815260200190815260200160002060008373ffffffffffffffffffffffffffffffffffffffff1673ffffffffffffffffffffffffffffffffffffffff16815260200190815260200160002060009054906101000a900460ff16905092915050565b60007f01ffc9a7000000000000000000000000000000000000000000000000000000007bffffffffffffffffffffffffffffffffffffffffffffffffffffffff1916827bffffffffffffffffffffffffffffffffffffffffffffffffffffffff1916149050919050565b610f988161176e565b610fd7576040517f08c379a0000000000000000000000000000000000000000000000000000000008152600401610fce906128c6565b60405180910390fd5b50565b600033905090565b816004600083815260200190815260200160002060006101000a81548173ffffffffffffffffffffffffffffffffffffffff021916908373ffffffffffffffffffffffffffffffffffffffff160217905550808273ffffffffffffffffffffffffffffffffffffffff1661105583610b7a565b73ffffffffffffffffffffffffffffffffffffffff167f8c5be1e5ebec7d5bd14f71427d1e84f3dd0314c0f7b2291e5b200ac8c7c3b92560405160405180910390a45050565b6110a583836117af565b6110b260008484846119cc565b6110f1576040517f08c379a00000000000000000000000000000000000000000000000000000000081526004016110e890612a4a565b60405180910390fd5b505050565b60008061110283610b7a565b90508073ffffffffffffffffffffffffffffffffffffffff168473ffffffffffffffffffffffffffffffffffffffff16148061114457506111438185610e91565b5b8061118257508373ffffffffffffffffffffffffffffffffffffffff1661116a846105ff565b73ffffffffffffffffffffffffffffffffffffffff16145b91505092915050565b8273ffffffffffffffffffffffffffffffffffffffff166111ab82610b7a565b73ffffffffffffffffffffffffffffffffffffffff1614611201576040517f08c379a00000000000000000000000000000000000000000000000000000000081526004016111f890612adc565b60405180910390fd5b600073ffffffffffffffffffffffffffffffffffffffff168273ffffffffffffffffffffffffffffffffffffffff1603611270576040517f08c379a000000000000000000000000000000000000000000000000000000000815260040161126790612b6e565b60405180910390fd5b61127d8383836001611b53565b8273ffffffffffffffffffffffffffffffffffffffff1661129d82610b7a565b73ffffffffffffffffffffffffffffffffffffffff16146112f3576040517f08c379a00000000000000000000000000000000000000000000000000000000081526004016112ea90612adc565b60405180910390fd5b6004600082815260200190815260200160002060006101000a81549073ffffffffffffffffffffffffffffffffffffffff02191690556001600360008573ffffffffffffffffffffffffffffffffffffffff1673ffffffffffffffffffffffffffffffffffffffff168152602001908152602001600020600082825403925050819055506001600360008473ffffffffffffffffffffffffffffffffffffffff1673ffffffffffffffffffffffffffffffffffffffff16815260200190815260200160002060008282540192505081905550816002600083815260200190815260200160002060006101000a81548173ffffffffffffffffffffffffffffffffffffffff021916908373ffffffffffffffffffffffffffffffffffffffff160217905550808273ffffffffffffffffffffffffffffffffffffffff168473ffffffffffffffffffffffffffffffffffffffff167fddf252ad1be2c89b69c2b068fc378daa952ba7f163c4a11628f55a4df523b3ef60405160405180910390a461147f8383836001611b59565b505050565b60006002600083815260200190815260200160002060009054906101000a900473ffffffffffffffffffffffffffffffffffffffff169050919050565b8173ffffffffffffffffffffffffffffffffffffffff168373ffffffffffffffffffffffffffffffffffffffff160361152f576040517f08c379a000000000000000000000000000000000000000000000000000000000815260040161152690612bda565b60405180910390fd5b80600560008573ffffffffffffffffffffffffffffffffffffffff1673ffffffffffffffffffffffffffffffffffffffff16815260200190815260200160002060008473ffffffffffffffffffffffffffffffffffffffff1673ffffffffffffffffffffffffffffffffffffffff16815260200190815260200160002060006101000a81548160ff0219169083151502179055508173ffffffffffffffffffffffffffffffffffffffff168373ffffffffffffffffffffffffffffffffffffffff167f17307eab39ab6107e8899845ad3d59bd9653f200f220920489ca2b5937696c31836040516116209190611d89565b60405180910390a3505050565b61163884848461118b565b611644848484846119cc565b611683576040517f08c379a000000000000000000000000000000000000000000000000000000000815260040161167a90612a4a565b60405180910390fd5b50505050565b606060405180602001604052806000815250905090565b6060600060016116af84611b5f565b01905060008167ffffffffffffffff8111156116ce576116cd61222b565b5b6040519080825280601f01601f1916602001820160405280156117005781602001600182028036833780820191505090505b509050600082602001820190505b600115611763578080600190039150507f3031323334353637383961626364656600000000000000000000000000000000600a86061a8153600a858161175757611756612bfa565b5b0494506000850361170e575b819350505050919050565b60008073ffffffffffffffffffffffffffffffffffffffff1661179083611484565b73ffffffffffffffffffffffffffffffffffffffff1614159050919050565b600073ffffffffffffffffffffffffffffffffffffffff168273ffffffffffffffffffffffffffffffffffffffff160361181e576040517f08c379a000000000000000000000000000000000000000000000000000000000815260040161181590612c75565b60405180910390fd5b6118278161176e565b15611867576040517f08c379a000000000000000000000000000000000000000000000000000000000815260040161185e90612ce1565b60405180910390fd5b611875600083836001611b53565b61187e8161176e565b156118be576040517f08c379a00000000000000000000000000000000000000000000000000000000081526004016118b590612ce1565b60405180910390fd5b6001600360008473ffffffffffffffffffffffffffffffffffffffff1673ffffffffffffffffffffffffffffffffffffffff16815260200190815260200160002060008282540192505081905550816002600083815260200190815260200160002060006101000a81548173ffffffffffffffffffffffffffffffffffffffff021916908373ffffffffffffffffffffffffffffffffffffffff160217905550808273ffffffffffffffffffffffffffffffffffffffff16600073ffffffffffffffffffffffffffffffffffffffff167fddf252ad1be2c89b69c2b068fc378daa952ba7f163c4a11628f55a4df523b3ef60405160405180910390a46119c8600083836001611b59565b5050565b60006119ed8473ffffffffffffffffffffffffffffffffffffffff16611cb2565b15611b46578373ffffffffffffffffffffffffffffffffffffffff1663150b7a02611a16610fda565b8786866040518563ffffffff1660e01b8152600401611a389493929190612d56565b6020604051808303816000875af1925050508015611a7457506040513d601f19601f82011682018060405250810190611a719190612db7565b60015b611af6573d8060008114611aa4576040519150601f19603f3d011682016040523d82523d6000602084013e611aa9565b606091505b506000815103611aee576040517f08c379a0000000000000000000000000000000000000000000000000000000008152600401611ae590612a4a565b60405180910390fd5b805181602001fd5b63150b7a0260e01b7bffffffffffffffffffffffffffffffffffffffffffffffffffffffff1916817bffffffffffffffffffffffffffffffffffffffffffffffffffffffff191614915050611b4b565b600190505b949350505050565b50505050565b50505050565b600080600090507a184f03e93ff9f4daa797ed6e38ed64bf6a1f0100000000000000008310611bbd577a184f03e93ff9f4daa797ed6e38ed64bf6a1f0100000000000000008381611bb357611bb2612bfa565b5b0492506040810190505b6d04ee2d6d415b85acef81000000008310611bfa576d04ee2d6d415b85acef81000000008381611bf057611bef612bfa565b5b0492506020810190505b662386f26fc100008310611c2957662386f26fc100008381611c1f57611c1e612bfa565b5b0492506010810190505b6305f5e1008310611c52576305f5e1008381611c4857611c47612bfa565b5b0492506008810190505b6127108310611c77576127108381611c6d57611c6c612bfa565b5b0492506004810190505b60648310611c9a5760648381611c9057611c8f612bfa565b5b0492506002810190505b600a8310611ca9576001810190505b80915050919050565b6000808273ffffffffffffffffffffffffffffffffffffffff163b119050919050565b6000604051905090565b600080fd5b600080fd5b60007fffffffff0000000000000000000000000000000000000000000000000000000082169050919050565b611d1e81611ce9565b8114611d2957600080fd5b50565b600081359050611d3b81611d15565b92915050565b600060208284031215611d5757611d56611cdf565b5b6000611d6584828501611d2c565b91505092915050565b60008115159050919050565b611d8381611d6e565b82525050565b6000602082019050611d9e6000830184611d7a565b92915050565b600081519050919050565b600082825260208201905092915050565b60005b83811015611dde578082015181840152602081019050611dc3565b60008484015250505050565b6000601f19601f8301169050919050565b6000611e0682611da4565b611e108185611daf565b9350611e20818560208601611dc0565b611e2981611dea565b840191505092915050565b60006020820190508181036000830152611e4e8184611dfb565b905092915050565b6000819050919050565b611e6981611e56565b8114611e7457600080fd5b50565b600081359050611e8681611e60565b92915050565b600060208284031215611ea257611ea1611cdf565b5b6000611eb084828501611e77565b91505092915050565b600073ffffffffffffffffffffffffffffffffffffffff82169050919050565b6000611ee482611eb9565b9050919050565b611ef481611ed9565b82525050565b6000602082019050611f0f6000830184611eeb565b92915050565b611f1e81611ed9565b8114611f2957600080fd5b50565b600081359050611f3b81611f15565b92915050565b60008060408385031215611f5857611f57611cdf565b5b6000611f6685828601611f2c565b9250506020611f7785828601611e77565b9150509250929050565b600080fd5b600080fd5b600080fd5b60008083601f840112611fa657611fa5611f81565b5b8235905067ffffffffffffffff811115611fc357611fc2611f86565b5b602083019150836001820283011115611fdf57611fde611f8b565b5b9250929050565b6000806000806060858703121561200057611fff611cdf565b5b600061200e87828801611e77565b945050602061201f87828801611f2c565b935050604085013567ffffffffffffffff8111156120405761203f611ce4565b5b61204c87828801611f90565b925092505092959194509250565b60008060006060848603121561207357612072611cdf565b5b600061208186828701611f2c565b935050602061209286828701611f2c565b92505060406120a386828701611e77565b9150509250925092565b6120b681611e56565b82525050565b60006020820190506120d160008301846120ad565b92915050565b6000819050919050565b60006120fc6120f76120f284611eb9565b6120d7565b611eb9565b9050919050565b600061210e826120e1565b9050919050565b600061212082612103565b9050919050565b61213081612115565b82525050565b600060208201905061214b6000830184612127565b92915050565b60006020828403121561216757612166611cdf565b5b600061217584828501611f2c565b91505092915050565b600061218982612103565b9050919050565b6121998161217e565b82525050565b60006020820190506121b46000830184612190565b92915050565b6121c381611d6e565b81146121ce57600080fd5b50565b6000813590506121e0816121ba565b92915050565b600080604083850312156121fd576121fc611cdf565b5b600061220b85828601611f2c565b925050602061221c858286016121d1565b9150509250929050565b600080fd5b7f4e487b7100000000000000000000000000000000000000000000000000000000600052604160045260246000fd5b61226382611dea565b810181811067ffffffffffffffff821117156122825761228161222b565b5b80604052505050565b6000612295611cd5565b90506122a1828261225a565b919050565b600067ffffffffffffffff8211156122c1576122c061222b565b5b6122ca82611dea565b9050602081019050919050565b82818337600083830152505050565b60006122f96122f4846122a6565b61228b565b90508281526020810184848401111561231557612314612226565b5b6123208482856122d7565b509392505050565b600082601f83011261233d5761233c611f81565b5b813561234d8482602086016122e6565b91505092915050565b600080600080608085870312156123705761236f611cdf565b5b600061237e87828801611f2c565b945050602061238f87828801611f2c565b93505060406123a087828801611e77565b925050606085013567ffffffffffffffff8111156123c1576123c0611ce4565b5b6123cd87828801612328565b91505092959194509250565b600080604083850312156123f0576123ef611cdf565b5b60006123fe85828601611f2c565b925050602061240f85828601611f2c565b9150509250929050565b7f4e487b7100000000000000000000000000000000000000000000000000000000600052602260045260246000fd5b6000600282049050600182168061246057607f821691505b60208210810361247357612472612419565b5b50919050565b7f4552433732313a20617070726f76616c20746f2063757272656e74206f776e6560008201527f7200000000000000000000000000000000000000000000000000000000000000602082015250565b60006124d5602183611daf565b91506124e082612479565b604082019050919050565b60006020820190508181036000830152612504816124c8565b9050919050565b7f4552433732313a20617070726f76652063616c6c6572206973206e6f7420746f60008201527f6b656e206f776e6572206f7220617070726f76656420666f7220616c6c000000602082015250565b6000612567603d83611daf565b91506125728261250b565b604082019050919050565b600060208201905081810360008301526125968161255a565b9050919050565b6000815190506125ac81611e60565b92915050565b6000602082840312156125c8576125c7611cdf565b5b60006125d68482850161259d565b91505092915050565b600060029050919050565b600081905092915050565b6000819050919050565b61260881611e56565b82525050565b600061261a83836125ff565b60208301905092915050565b6000602082019050919050565b61263c816125df565b61264681846125ea565b9250612651826125f5565b8060005b83811015612682578151612669878261260e565b965061267483612626565b925050600181019050612655565b505050505050565b600060408201905061269f6000830184612633565b92915050565b7f4e487b7100000000000000000000000000000000000000000000000000000000600052601160045260246000fd5b60006126df82611e56565b91506126ea83611e56565b9250828201905080821115612702576127016126a5565b5b92915050565b600060408201905061271d60008301856120ad565b61272a60208301846120ad565b9392505050565b60008151905061274081611f15565b92915050565b60006020828403121561275c5761275b611cdf565b5b600061276a84828501612731565b91505092915050565b600081905092915050565b50565b600061278e600083612773565b91506127998261277e565b600082019050919050565b60006127af82612781565b9150819050919050565b7f4e487b7100000000000000000000000000000000000000000000000000000000600052600160045260246000fd5b7f4552433732313a2063616c6c6572206973206e6f7420746f6b656e206f776e6560008201527f72206f7220617070726f76656400000000000000000000000000000000000000602082015250565b6000612844602d83611daf565b915061284f826127e8565b604082019050919050565b6000602082019050818103600083015261287381612837565b9050919050565b7f4552433732313a20696e76616c696420746f6b656e2049440000000000000000600082015250565b60006128b0601883611daf565b91506128bb8261287a565b602082019050919050565b600060208201905081810360008301526128df816128a3565b9050919050565b7f4552433732313a2061646472657373207a65726f206973206e6f74206120766160008201527f6c6964206f776e65720000000000000000000000000000000000000000000000602082015250565b6000612942602983611daf565b915061294d826128e6565b604082019050919050565b6000602082019050818103600083015261297181612935565b9050919050565b600081905092915050565b600061298e82611da4565b6129988185612978565b93506129a8818560208601611dc0565b80840191505092915050565b60006129c08285612983565b91506129cc8284612983565b91508190509392505050565b7f4552433732313a207472616e7366657220746f206e6f6e20455243373231526560008201527f63656976657220696d706c656d656e7465720000000000000000000000000000602082015250565b6000612a34603283611daf565b9150612a3f826129d8565b604082019050919050565b60006020820190508181036000830152612a6381612a27565b9050919050565b7f4552433732313a207472616e736665722066726f6d20696e636f72726563742060008201527f6f776e6572000000000000000000000000000000000000000000000000000000602082015250565b6000612ac6602583611daf565b9150612ad182612a6a565b604082019050919050565b60006020820190508181036000830152612af581612ab9565b9050919050565b7f4552433732313a207472616e7366657220746f20746865207a65726f2061646460008201527f7265737300000000000000000000000000000000000000000000000000000000602082015250565b6000612b58602483611daf565b9150612b6382612afc565b604082019050919050565b60006020820190508181036000830152612b8781612b4b565b9050919050565b7f4552433732313a20617070726f766520746f2063616c6c657200000000000000600082015250565b6000612bc4601983611daf565b9150612bcf82612b8e565b602082019050919050565b60006020820190508181036000830152612bf381612bb7565b9050919050565b7f4e487b7100000000000000000000000000000000000000000000000000000000600052601260045260246000fd5b7f4552433732313a206d696e7420746f20746865207a65726f2061646472657373600082015250565b6000612c5f602083611daf565b9150612c6a82612c29565b602082019050919050565b60006020820190508181036000830152612c8e81612c52565b9050919050565b7f4552433732313a20746f6b656e20616c7265616479206d696e74656400000000600082015250565b6000612ccb601c83611daf565b9150612cd682612c95565b602082019050919050565b60006020820190508181036000830152612cfa81612cbe565b9050919050565b600081519050919050565b600082825260208201905092915050565b6000612d2882612d01565b612d328185612d0c565b9350612d42818560208601611dc0565b612d4b81611dea565b840191505092915050565b6000608082019050612d6b6000830187611eeb565b612d786020830186611eeb565b612d8560408301856120ad565b8181036060830152612d978184612d1d565b905095945050505050565b600081519050612db181611d15565b92915050565b600060208284031215612dcd57612dcc611cdf565b5b6000612ddb84828501612da2565b9150509291505056fea26469706673582212201f919023ff0824d3ad7103aa6c8d9cf8854b5e23aeec19e64d19c42348a026de64736f6c63430008130033",
  "linkReferences": {},
  "deployedLinkReferences": {}
}